:100000000C9436000C945E000C945E000C945E0020
:100010000C945E000C945E000C945E000C945E00E8
:100020000C945E000C945E000C945E000C945E00D8
:100030000C945E000C945E000C945E000C945E00C8
:100040000C9413030C945E000C9483030C945D03D6
:100050000C945E000C945E000C945E000C945E00A8
:100060000C945E000C945E00B503530611241FBE71
:10007000CFEFD8E0DEBFCDBF23E0AEE9B2E001C0F4
:100080001D92AE39B207E1F712E0A0E0B1E0E2E67E
:10009000F2E102C005900D92AE39B107D9F710E038
:1000A000C5E3D0E004C02197FE010E941907C433C4
:1000B000D107C9F70E941D040C9424090C94000078
:1000C000CF92DF92EF92FF920F931F93CF93DF9324
:1000D0006C017A018B01C0E0D0E0CE15DF0581F024
:1000E000D8016D918D01D601ED91FC910190F081C7
:1000F000E02DC6010995892B11F02196EECF7E01E6
:10010000C701DF91CF911F910F91FF90EF90DF908A
:10011000CF900895089580E090E00895FC01538DFC
:10012000448D252F30E0842F90E0821B930B5417D1
:1001300010F0CF96089501970895FC01918D828D5E
:10014000981761F0828DDF01A80FB11D5D968C912B
:10015000928D9F5F9F73928F90E008958FEF9FEF36
:100160000895FC01918D828D981731F0828DE80FF2
:10017000F11D858D90E008958FEF9FEF08952FB7C3
:10018000F8948091BD029091BE02A091BF02B091FF
:10019000C0022FBF8093C9029093CA02A093CB02E2
:1001A000B093CC0281EC92E00E94B10097FF26C090
:1001B0002FB7F8948091BD029091BE02A091BF022A
:1001C000B091C0022FBF4091C9025091CA02609104
:1001D000CB027091CC02841B950BA60BB70B409100
:1001E000C5025091C6026091C7027091C80284177F
:1001F0009507A607B707B0F28FEF9FEF0895CF924C
:10020000DF92EF92FF92CF930E94BF00FC0197FD17
:100210000BC08D32910561F0C0970A9748F081ECD0
:1002200092E00E949D00F0CF60E070E0CB0140C002
:10023000C12CD12C7601C0E0E130F10501F1ED32A5
:10024000F105E1F0CF01C0970A97C8F4AAE0B0E049
:10025000A70196010E9487066F01FF0FEE08FF08B5
:10026000DC01CB018C0D9D1DAE1DBF1D6C017D0100
:1002700020E3C21AD108E108F10801C0C1E081EC15
:1002800092E00E949D000E94BF00FC01C0970A9767
:1002900098F2E130F10581F2CC2341F0662777270F
:1002A000CB016C197D098E099F0902C0C701B601F7
:1002B000CF91FF90EF90DF90CF900895FC01918D4A
:1002C000228D892F90E0805C9F4F821B91098F7354
:1002D0009927089581EC92E00E945E0121E0892B2C
:1002E00009F420E0822F0895FC01848DDF01A80F1E
:1002F000B11DA35ABF4F2C91848D90E001968F734E
:100300009927848FA689B7892C93A089B1898C916C
:10031000837080648C93938D848D981306C00288BB
:10032000F389E02D80818F7D80830895EF92FF9285
:100330000F931F93CF93DF93EC0181E0888F9B8D08
:100340008C8D981305C0E889F989808185FD26C0C8
:10035000F62E0B8D10E00F5F1F4F0F731127E02E4D
:100360008C8DE8120CC00FB607FCFACFE889F9892A
:10037000808185FFF5CFCE010E947401F1CF8B8D76
:10038000FE01E80FF11DE35AFF4FF0829FB7F8948A
:100390000B8FEA89FB89808180620AC09FB7F8943D
:1003A000EE89FF896083E889F989808183708064A0
:1003B00080839FBF81E090E0DF91CF911F910F91EB
:1003C000FF90EF900895CF93DF93EC01888D882301
:1003D000C9F0EA89FB89808185FD05C0A889B989B2
:1003E0008C9186FD0FC00FB607FCF5CF808185FF8D
:1003F000F2CFA889B9898C9185FFEDCFCE010E94FB
:100400007401E7CFDF91CF91089580E090E0892BD0
:1004100029F00E946A0181110C940000089581EC7A
:1004200092E00E945E01892BD1F30E94FF00CB0174
:100430000895009769F0FC0101900020E9F73197D9
:10044000AF01481B590BBC0181EC92E00C94600099
:1004500080E090E00895CF93DF930E941902EC01B1
:1004600088E191E00E9419028C0F9D1FDF91CF91CE
:1004700008958F929F92AF92BF92CF92DF92EF92A8
:10048000FF920F931F93CF93DF93CDB7DEB7A19762
:100490000FB6F894DEBF0FBECDBF6B017C0197FF96
:1004A0002BC06DE281EC92E00E9496018C01222724
:1004B0003327A9012C193D094E095F0919A2CE0164
:1004C00081967C019AE0892E912CA12CB12CCA0135
:1004D000B901A50194010E94D806605DF7016293FD
:1004E0007F01211531054105510589F7CF010E9492
:1004F0001902800F911F1DC09B01AC0119A28E0132
:100500000F5D1F4F8AE0C82ED12CE12CF12CCA01BF
:10051000B901A70196010E94D806605DF8016293B7
:100520008F01211531054105510589F7CF010E9441
:100530001902A1960FB6F894DEBF0FBECDBFDF91B2
:10054000CF911F910F91FF90EF90DF90CF90BF90D0
:10055000AF909F908F9008950C941902CF93DF93E2
:10056000FC01448155816081718181EC92E00E949F
:100570006000EC0188E191E00E9419028C0F9D1F40
:10058000DF91CF9108950E940609EF92FF920F9399
:100590001F93CF93DF93EC01198218821B821A827A
:1005A0001D821C8261157105B9F17B01FB0101906F
:1005B0000020E9F731978F01061B170BB8016F5F19
:1005C0007F4F80E090E00E944008009759F09983A7
:1005D00088831B830A832C813D81232B81F4FC01BA
:1005E00010820DC088819981009711F00E94B70791
:1005F000198218821D821C821B821A820DC01D83E3
:100600000C83B70188819981DF91CF911F910F9160
:10061000FF90EF900C941D09DF91CF911F910F91E6
:10062000FF90EF9008951F920F920FB60F92112432
:100630002F933F938F939F93AF93BF938091BD026E
:100640009091BE02A091BF02B091C0023091BC0255
:1006500023E0230F2D3720F40196A11DB11D05C005
:1006600026E8230F0296A11DB11D2093BC028093A2
:10067000BD029093BE02A093BF02B093C0028091CE
:10068000B8029091B902A091BA02B091BB02019652
:10069000A11DB11D8093B8029093B902A093BA0234
:1006A000B093BB02BF91AF919F918F913F912F91DA
:1006B0000F900FBE0F901F9018951F920F920FB6BC
:1006C0000F9211242F933F934F935F936F937F93D8
:1006D0008F939F93AF93BF93EF93FF9381EC92E03F
:1006E0000E947401FF91EF91BF91AF919F918F9103
:1006F0007F916F915F914F913F912F910F900FBE1E
:100700000F901F9018951F920F920FB60F92112401
:100710002F938F939F93EF93FF93E091D102F091EA
:10072000D2028081E091D702F091D80282FD12C0FE
:1007300090818091DA028F5F8F732091DB028217A4
:1007400051F0E091DA02F0E0EF53FD4F958F809386
:10075000DA0201C08081FF91EF919F918F912F91DB
:100760000F900FBE0F901F901895E1ECF2E01382EE
:10077000128288EE93E0A0E0B0E084839583A683A4
:10078000B7838AE091E09183808385EC90E0958740
:10079000848784EC90E09787868780EC90E0918B4B
:1007A000808B81EC90E0938B828B82EC90E0958B38
:1007B000848B86EC90E0978B868B118E128E138E35
:1007C000148E6BE171E082E893E00E94C50267E25B
:1007D00071E088E893E00E94C50263E371E08EE86F
:1007E00093E00E94C5026EE371E084E993E00E9409
:1007F000C5026BE471E080E793E00E94C50260E50A
:1008000071E086E793E00E94C50265E571E08CE740
:1008100093E00E94C50269E571E08EE593E00E94D5
:10082000C50261E671E084E693E00E94C50269E6D4
:1008300071E08AE693E00C94C502789484B58260F6
:1008400084BD84B5816084BD85B5826085BD85B574
:10085000816085BD80916E00816080936E001092F2
:10086000810080918100826080938100809181006D
:1008700081608093810080918000816080938000FE
:100880008091B10084608093B1008091B00081605C
:100890008093B00080917A00846080937A00809188
:1008A0007A00826080937A0080917A0081608093E0
:1008B0007A0080917A00806880937A001092C1005B
:1008C0008FE691E00E942B02E091D102F091D202DA
:1008D00082E08083E091CD02F091CE021082E0911F
:1008E000CF02F091D0028FEC80831092D902E09178
:1008F000D502F091D60286E08083E091D302F09198
:10090000D402808180618083E091D302F091D4028F
:10091000808188608083E091D302F091D40280814D
:1009200080688083E091D302F091D40280818F7D32
:10093000808380E1882E8EE0982E90E1C92E9EE083
:10094000D92EE12CF12C2CE3422E512C612C712C50
:1009500022242394312C84E891E00E942B0285EA22
:1009600091E00E942B0284EB91E00E942B0281EC2B
:1009700092E00E945E01892BD1F30E94FF00611575
:10098000710509F051C082EC91E00E94AC026091C7
:10099000B6027091B702072E000C880B990B0E94CB
:1009A00039028EED91E00E94AC026091B20270912A
:1009B000B3028091B4029091B502A70196010E9402
:1009C000FA06CA01B9010E94390285EF91E00E943E
:1009D000AC026091B2027091B3028091B402909126
:1009E000B502A70196010E94FA06A30192010E9496
:1009F000FA06CA01B9010E94390289EF91E00E940A
:100A0000AC026091B2027091B3028091B4029091F5
:100A1000B502A30192010E94FA060E9439028EEFEC
:100A200091E00E942B0297CF6130710581F14091D6
:100A3000A0025091A1026091A2027091A302809144
:100A4000A4029091A502A091A602B091A702480F1E
:100A5000591F6A1F7B1F8091A8029091A902A09143
:100A6000AA02B091AB02480F591F6A1F7B1F409327
:100A7000AC025093AD026093AE027093AF028091CE
:100A80009E0290919F02892B09F47CC09CC08091AA
:100A9000B0029091B10201969093B1028093B0029E
:100AA00000E713E0C0EAD2E083E092E00E94AC02EB
:100AB000C8010E94AE020E940F02889D5001899DCC
:100AC000B00C989DB00C1124C5010B2C000CAA0B86
:100AD000BB0B88839983AA83BB83F80184819581AA
:100AE000892B79F06BE471E0808191810E94140977
:100AF000892B39F4B7FE05C08DE292E00E942B02EB
:100B000042CF85E492E00E94AC02C8010E94AE028E
:100B10000E940F024CE39C01429FC001439F900D35
:100B20001124092E000CAA0BBB0B488159816A8144
:100B30007B81840F951FA61FB71F88839983AA8383
:100B4000BB8381E792E00E94AC02C8010E94AE0222
:100B50000E940F02092E000CAA0BBB0B4881598181
:100B60006A817B81840F951FA61FB71F8993999374
:100B7000A993B9930A5F1F4F82E0CC3AD80709F0D6
:100B800093CF55CF8091B2029091B302A091B4025D
:100B9000B091B50284179507A607B707A4F4409350
:100BA000B2025093B3026093B4027093B502809185
:100BB000B0029091B1029093B7028093B602309246
:100BC0009F0220929E0280919E0290919F02019727
:100BD000E9F48091B2029091B302A091B402B09175
:100BE000B502481759076A077B0784F44093B2029D
:100BF0005093B3026093B4027093B5028091B00237
:100C00009091B1029093B7028093B60202E813E08C
:100C1000C0EAD2E0F801448155816081718181ECA4
:100C200092E00E9460005E01688179818A819B81E7
:100C3000A70196010E94FA06CA01B9010E94390271
:100C400085EF91E00E94AC02699179918991999127
:100C5000A70196010E94FA06A30192010E94FA06DA
:100C6000CA01B9010E94390289EF91E00E94AC02E9
:100C7000F5016081718182819381A30192010E94BB
:100C8000FA060E9439028EEF91E00E942B020A5F61
:100C90001F4FF2E0C03BDF0709F0BCCF88E191E0D5
:100CA0000E94190258CECF93DF9380916A039091EE
:100CB0006B030E94B70780916403909165030E94C3
:100CC000B70780915E0390915F030E94B707809100
:100CD0007C0390917D030E94B707809176039091E9
:100CE00077030E94B70780917003909171030E946F
:100CF000B707CAE9D3E02697888199810E94B70790
:100D000083E0C238D807B9F7DF91CF9108950E94E8
:100D1000C906A59F900DB49F900DA49F800D911DB5
:100D2000112408952F923F924F925F926F927F927B
:100D30008F929F92AF92BF92CF92DF92EF92FF92EB
:100D40000F931F93CF93DF93CDB7DEB7CA1BDB0B97
:100D50000FB6F894DEBF0FBECDBF09942A8839883C
:100D600048885F846E847D848C849B84AA84B98443
:100D7000C884DF80EE80FD800C811B81AA81B9814F
:100D8000CE0FD11D0FB6F894DEBF0FBECDBFED0163
:100D90000895A29FB001B39FC001A39F700D811D54
:100DA0001124911DB29F700D811D1124911D089574
:100DB000A1E21A2EAA1BBB1BFD010DC0AA1FBB1F5F
:100DC000EE1FFF1FA217B307E407F50720F0A21BD1
:100DD000B30BE40BF50B661F771F881F991F1A943E
:100DE00069F760957095809590959B01AC01BD0168
:100DF000CF010895052E97FB1EF400940E94110761
:100E000057FD07D00E94D80607FC03D04EF40C947F
:100E1000110750954095309521953F4F4F4F5F4FAB
:100E2000089590958095709561957F4F8F4F9F4F56
:100E30000895EE0FFF1F0590F491E02D09940F9394
:100E40001F93CF93DF938230910510F482E090E0FE
:100E5000E0919C03F0919D0320E030E0A0E0B0E041
:100E6000309719F140815181028113814817590748
:100E7000C8F08417950769F4109731F012960C9317
:100E8000129713961C9327C000939C0310939D0305
:100E900022C02115310519F04217530718F49A01A1
:100EA000BD01EF01DF01F801DBCF21153105F9F0BC
:100EB000281B390B2430310580F48A819B81611510
:100EC000710521F0FB019383828304C090939D03FD
:100ED00080939C03FE01329644C0FE01E20FF31F93
:100EE0008193919322503109398328833AC020910C
:100EF0009A0330919B03232B41F4209102013091FE
:100F0000030130939B0320939A03209100013091B9
:100F100001012115310541F42DB73EB7409104017F
:100F200050910501241B350BE0919A03F0919B032E
:100F3000E217F307A0F42E1B3F0B2817390778F0B0
:100F4000AC014E5F5F4F2417350748F04E0F5F1F0F
:100F500050939B0340939A038193919302C0E0E0E6
:100F6000F0E0CF01DF91CF911F910F910895CF93C2
:100F7000DF93009709F481C0FC013297138212823B
:100F8000A0919C03B0919D03109781F42081318141
:100F9000820F931F20919A0330919B0328173907E2
:100FA00051F5F0939B03E0939A0367C0ED0120E0B5
:100FB00030E0CE17DF0740F44A815B819E01411586
:100FC0005105F1F0EA01F5CFD383C283408151810D
:100FD000840F951FC817D90759F488819981840F08
:100FE000951F0296918380838A819B81938382835C
:100FF0002115310529F4F0939D03E0939C033DC036
:10100000E901FB83EA8349915991C40FD51FEC177D
:10101000FD0761F480819181840F951F0296E9019B
:1010200099838883828193819B838A83E0E0F0E0C7
:1010300012968D919C911397009719F0FD01DC0198
:10104000F7CF8D919C9111979D012E5F3F4F820F9D
:10105000931F20919A0330919B032817390769F455
:10106000309729F410929D0310929C0302C01382C2
:101070001282B0939B03A0939A03DF91CF910895BE
:10108000A0E0B0E0E6E4F8E00C949606EC010097EE
:1010900021F4CB010E941F07B4C0FC01E60FF71F2B
:1010A0009C0122503109E217F30708F4A8C0D901C6
:1010B0000D911C91119706171707B0F00530110517
:1010C00008F49BC0C80104978617970708F495C0D9
:1010D00002501109061B170B019311936D937C931A
:1010E000CF010E94B70789C05B01A01AB10A4C0169
:1010F000800E911EA0919C03B0919D03612C712CD8
:10110000E12CF12C109709F446C08D919C91119718
:10111000A815B905B1F56C0142E0C40ED11CCA1482
:10112000DB0478F14C018A189B08640142E0C40E8C
:10113000D11C1296BC9012971396AC91B5E0CB16C9
:10114000D10440F0B282A38391828082D9016D9351
:101150007C9309C00E5F1F4F800F911FF90191838F
:101160008083EB2DFA2FE114F10431F0D7011396AF
:10117000FC93EE93129741C0F0939D03E0939C0380
:101180003CC06816790608F43C017D0112960D906A
:10119000BC91A02DB7CF80919A0390919B038816A4
:1011A0009906E1F466167706C8F4809100019091E3
:1011B0000101009741F48DB79EB740910401509111
:1011C0000501841B950BE817F907C8F4F0939B03FE
:1011D000E0939A03F901718360830FC0CB010E94F1
:1011E0001F077C01009759F0A801BE010E940B095E
:1011F000CE010E94B707C70104C0CE0102C080E043
:1012000090E0CDB7DEB7EEE00C94B20681E090E05E
:10121000F8940C942409FB01DC0102C001900D92AA
:1012200041505040D8F70895FB01DC018D910190A9
:1012300080190110D9F3990B0895FB01DC0101908D
:101240000D920020E1F7089510E0C5E3D0E004C05E
:10125000FE010E9419072196C633D107C9F7F894F9
:02126000FFCFBE
:1012620000009E03800000000000960160008E00D6
:10127200E3015E019D00B1000D0A005377696D2004
:1012820074696D653A200042696B652074696D6509
:101292003A200052756E2074696D653A2000546FD1
:1012A20074616C2074696D653A20005357494D0092
:1012B20042494B450052554E007365636F6E64732D
:1012C200006D696E7574657300686F757273005393
:1012D2006F6D657468696E672077656E74207772CA
:1012E2006F6E6700596F752077616E7420746F207E
:1012F20061646420616E6F74686572206174686CE9
:101302006574653F005772697465203120696620F3
:101312005965730057726974652030206966204EE2
:101322006F0054686520666173746573742061741C
:10133200686C65746520776173206E6F2E0020776C
:10134200697468206120746F74616C2074696D65C2
:10135200206F662000687220006D696E2000736540
:10136200632000506C6561736520656E7465722040
:10137200746865206E756D626572206F6620686F95
:1013820075727320666F72207468652000596F75DC
:101392002077726F746520612077726F6E67207696
:1013A200616C756500506C6561736520656E74656E
:1013B2007220746865206E756D626572206F66209A
:1013C2006D696E7574657320666F7220746865202E
:1013D20000506C6561736520656E74657220746877
:1013E20065206E756D626572206F66207365636F2E
:0E13F2006E647320666F7220746865200000C0
:00000001FF
